{
  "contractName": "Robin",
  "abi": [
    {
      "inputs": [],
      "stateMutability": "nonpayable",
      "type": "constructor"
    },
    {
      "inputs": [],
      "name": "owner",
      "outputs": [
        {
          "internalType": "address",
          "name": "",
          "type": "address"
        }
      ],
      "stateMutability": "view",
      "type": "function",
      "constant": true
    },
    {
      "inputs": [
        {
          "internalType": "address",
          "name": "",
          "type": "address"
        },
        {
          "internalType": "address",
          "name": "",
          "type": "address"
        }
      ],
      "name": "permittedDoctors",
      "outputs": [
        {
          "internalType": "bool",
          "name": "",
          "type": "bool"
        }
      ],
      "stateMutability": "view",
      "type": "function",
      "constant": true
    },
    {
      "inputs": [
        {
          "internalType": "address",
          "name": "_address",
          "type": "address"
        }
      ],
      "name": "grantAccess",
      "outputs": [
        {
          "internalType": "bool",
          "name": "",
          "type": "bool"
        }
      ],
      "stateMutability": "nonpayable",
      "type": "function"
    }
  ],
  "bytecode": "0x6080604052336000806101000a81548173ffffffffffffffffffffffffffffffffffffffff021916908373ffffffffffffffffffffffffffffffffffffffff16021790555034801561005057600080fd5b506103e6806100606000396000f3fe608060405234801561001057600080fd5b50600436106100415760003560e01c80630ae5e739146100465780638da5cb5b14610076578063da6175fd14610094575b600080fd5b610060600480360381019061005b91906102e3565b6100c4565b60405161006d919061032b565b60405180910390f35b61007e61022d565b60405161008b9190610355565b60405180910390f35b6100ae60048036038101906100a99190610370565b610251565b6040516100bb919061032b565b60405180910390f35b600060018060008060009054906101000a900473ffffffffffffffffffffffffffffffffffffffff1673ffffffffffffffffffffffffffffffffffffffff1673ffffffffffffffffffffffffffffffffffffffff16815260200190815260200160002060008473ffffffffffffffffffffffffffffffffffffffff1673ffffffffffffffffffffffffffffffffffffffff16815260200190815260200160002060006101000a81548160ff021916908315150217905550600160008060009054906101000a900473ffffffffffffffffffffffffffffffffffffffff1673ffffffffffffffffffffffffffffffffffffffff1673ffffffffffffffffffffffffffffffffffffffff16815260200190815260200160002060008373ffffffffffffffffffffffffffffffffffffffff1673ffffffffffffffffffffffffffffffffffffffff16815260200190815260200160002060009054906101000a900460ff169050919050565b60008054906101000a900473ffffffffffffffffffffffffffffffffffffffff1681565b60016020528160005260406000206020528060005260406000206000915091509054906101000a900460ff1681565b600080fd5b600073ffffffffffffffffffffffffffffffffffffffff82169050919050565b60006102b082610285565b9050919050565b6102c0816102a5565b81146102cb57600080fd5b50565b6000813590506102dd816102b7565b92915050565b6000602082840312156102f9576102f8610280565b5b6000610307848285016102ce565b91505092915050565b60008115159050919050565b61032581610310565b82525050565b6000602082019050610340600083018461031c565b92915050565b61034f816102a5565b82525050565b600060208201905061036a6000830184610346565b92915050565b6000806040838503121561038757610386610280565b5b6000610395858286016102ce565b92505060206103a6858286016102ce565b915050925092905056fea2646970667358221220b82bff3d75c8f133e1b0a00dbe7ff7065cd96c3a1b2e4e2625c846369df526da64736f6c634300080a0033",
  "immutableReferences": {},
  "source": "// SPDX-License-Identifier: MIT\npragma solidity >=0.4.22 <0.9.0;\n\n// robin = await Robin.deployed()\n\ncontract Robin {\n\n  address public owner = msg.sender;\n  \n  // mapping (address => bool) public permittedDoctors;\n  mapping (address => mapping (address => bool)) public permittedDoctors;\n\n  struct Doctor {\n    address id;\n  }\n\n  struct Patient {\n    address id;\n  }\n\n  struct Report {\n    address patientId;\n    address doctorId;\n    string report;\n  }\n\n  constructor() public {\n  }\n\n  function grantAccess(address _address) public returns (bool){\n      // 1. enroll of the sender of this transaction\n      permittedDoctors[owner][_address] = true;\n\n      // emit LogEnrolled(msg.sender);\n\n      return  permittedDoctors[owner][_address];\n    }\n}\n",
  "sourcePath": "/Users/i.emehinola/localhost/hydeenoble/blockchain-developer-bootcamp-final-project/contracts/Robin.sol",
  "compiler": {
    "name": "solc",
    "version": "0.8.10+commit.fc410830.Emscripten.clang"
  },
  "schemaVersion": "3.4.3",
  "updatedAt": "2021-11-13T15:11:00.096Z",
  "networkType": "ethereum",
  "devdoc": {
    "kind": "dev",
    "methods": {},
    "version": 1
  },
  "userdoc": {
    "kind": "user",
    "methods": {},
    "version": 1
  }
}