{
  "contractName": "Robin",
  "abi": [
    {
      "inputs": [],
      "stateMutability": "nonpayable",
      "type": "constructor"
    },
    {
      "anonymous": false,
      "inputs": [
        {
          "indexed": false,
          "internalType": "address",
          "name": "patient",
          "type": "address"
        },
        {
          "indexed": false,
          "internalType": "address",
          "name": "doctor",
          "type": "address"
        },
        {
          "indexed": false,
          "internalType": "bool",
          "name": "permitted",
          "type": "bool"
        }
      ],
      "name": "LogPermittedDoctors",
      "type": "event"
    },
    {
      "inputs": [],
      "name": "owner",
      "outputs": [
        {
          "internalType": "address",
          "name": "",
          "type": "address"
        }
      ],
      "stateMutability": "view",
      "type": "function",
      "constant": true
    },
    {
      "inputs": [
        {
          "internalType": "address",
          "name": "",
          "type": "address"
        },
        {
          "internalType": "address",
          "name": "",
          "type": "address"
        }
      ],
      "name": "permittedDoctors",
      "outputs": [
        {
          "internalType": "bool",
          "name": "",
          "type": "bool"
        }
      ],
      "stateMutability": "view",
      "type": "function",
      "constant": true
    },
    {
      "inputs": [
        {
          "internalType": "address",
          "name": "_address",
          "type": "address"
        }
      ],
      "name": "grantAccess",
      "outputs": [
        {
          "internalType": "bool",
          "name": "",
          "type": "bool"
        }
      ],
      "stateMutability": "nonpayable",
      "type": "function"
    },
    {
      "inputs": [],
      "name": "revokeAccess",
      "outputs": [],
      "stateMutability": "nonpayable",
      "type": "function"
    },
    {
      "inputs": [],
      "name": "createReport",
      "outputs": [],
      "stateMutability": "nonpayable",
      "type": "function"
    },
    {
      "inputs": [],
      "name": "listReport",
      "outputs": [],
      "stateMutability": "nonpayable",
      "type": "function"
    },
    {
      "inputs": [],
      "name": "encryptReport",
      "outputs": [],
      "stateMutability": "nonpayable",
      "type": "function"
    }
  ],
  "bytecode": "0x6080604052336000806101000a81548173ffffffffffffffffffffffffffffffffffffffff021916908373ffffffffffffffffffffffffffffffffffffffff16021790555034801561005057600080fd5b506104e5806100606000396000f3fe608060405234801561001057600080fd5b506004361061007d5760003560e01c806365dcfe991161005b57806365dcfe99146100c65780638da5cb5b146100d05780639e67227d146100ee578063da6175fd146100f85761007d565b80630ae5e73914610082578063257c02b1146100b25780634e4c7d9b146100bc575b600080fd5b61009c600480360381019061009791906103ab565b610128565b6040516100a991906103f3565b60405180910390f35b6100ba6102ed565b005b6100c46102ef565b005b6100ce6102f1565b005b6100d86102f3565b6040516100e5919061041d565b60405180910390f35b6100f6610317565b005b610112600480360381019061010d9190610438565b610319565b60405161011f91906103f3565b60405180910390f35b600060018060008060009054906101000a900473ffffffffffffffffffffffffffffffffffffffff1673ffffffffffffffffffffffffffffffffffffffff1673ffffffffffffffffffffffffffffffffffffffff16815260200190815260200160002060008473ffffffffffffffffffffffffffffffffffffffff1673ffffffffffffffffffffffffffffffffffffffff16815260200190815260200160002060006101000a81548160ff0219169083151502179055507f6fcb1ee00c0eae077c3f8db26b8e03cb0a806ac9f92323e2733bfc800c17f2c260008054906101000a900473ffffffffffffffffffffffffffffffffffffffff1683600160405161023393929190610478565b60405180910390a1600160008060009054906101000a900473ffffffffffffffffffffffffffffffffffffffff1673ffffffffffffffffffffffffffffffffffffffff1673ffffffffffffffffffffffffffffffffffffffff16815260200190815260200160002060008373ffffffffffffffffffffffffffffffffffffffff1673ffffffffffffffffffffffffffffffffffffffff16815260200190815260200160002060009054906101000a900460ff169050919050565b565b565b565b60008054906101000a900473ffffffffffffffffffffffffffffffffffffffff1681565b565b60016020528160005260406000206020528060005260406000206000915091509054906101000a900460ff1681565b600080fd5b600073ffffffffffffffffffffffffffffffffffffffff82169050919050565b60006103788261034d565b9050919050565b6103888161036d565b811461039357600080fd5b50565b6000813590506103a58161037f565b92915050565b6000602082840312156103c1576103c0610348565b5b60006103cf84828501610396565b91505092915050565b60008115159050919050565b6103ed816103d8565b82525050565b600060208201905061040860008301846103e4565b92915050565b6104178161036d565b82525050565b6000602082019050610432600083018461040e565b92915050565b6000806040838503121561044f5761044e610348565b5b600061045d85828601610396565b925050602061046e85828601610396565b9150509250929050565b600060608201905061048d600083018661040e565b61049a602083018561040e565b6104a760408301846103e4565b94935050505056fea26469706673582212207483b22bdd257667fc374ec846894bb6190de74945b02f20e6f50a8f5f66e61964736f6c634300080a0033",
  "immutableReferences": {},
  "source": "// SPDX-License-Identifier: MIT\npragma solidity >=0.4.22 <0.9.0;\n\n// robin = await Robin.deployed()\n\ncontract Robin {\n\n  address public owner = msg.sender;\n  \n  // mapping (address => bool) public permittedDoctors;\n  mapping (address => mapping (address => bool)) public permittedDoctors;\n\n  /* \n   * struct\n   */\n\n  struct Doctor {\n    address id;\n  }\n\n  struct Patient {\n    address id;\n  }\n\n  struct Report {\n    address patientId;\n    address doctorId;\n    string title;\n    string date;\n    string content;\n  }\n\n  /* \n   * Events\n   */\n\n   event LogPermittedDoctors(address patient, address doctor, bool permitted);\n\n  constructor() public {\n  }\n\n  function grantAccess(address _address) public returns (bool){\n      permittedDoctors[owner][_address] = true;\n\n      emit LogPermittedDoctors(owner, _address, true);\n\n      return  permittedDoctors[owner][_address];\n    }\n  \n  function revokeAccess() public {}\n\n  function createReport() public  {}\n\n  function listReport() public {}\n\n  function encryptReport() public {}\n}\n",
  "sourcePath": "/Users/i.emehinola/localhost/hydeenoble/blockchain-developer-bootcamp-final-project/contracts/Robin.sol",
  "compiler": {
    "name": "solc",
    "version": "0.8.10+commit.fc410830.Emscripten.clang"
  },
  "schemaVersion": "3.4.3",
  "updatedAt": "2021-11-13T15:34:07.050Z",
  "networkType": "ethereum",
  "devdoc": {
    "kind": "dev",
    "methods": {},
    "version": 1
  },
  "userdoc": {
    "kind": "user",
    "methods": {},
    "version": 1
  }
}