{
  "contractName": "Robin",
  "abi": [
    {
      "inputs": [],
      "stateMutability": "nonpayable",
      "type": "constructor"
    },
    {
      "anonymous": false,
      "inputs": [
        {
          "indexed": false,
          "internalType": "address",
          "name": "patient",
          "type": "address"
        },
        {
          "indexed": false,
          "internalType": "address",
          "name": "doctor",
          "type": "address"
        },
        {
          "indexed": false,
          "internalType": "bool",
          "name": "permitted",
          "type": "bool"
        }
      ],
      "name": "LogPermittedDoctors",
      "type": "event"
    },
    {
      "inputs": [],
      "name": "owner",
      "outputs": [
        {
          "internalType": "address",
          "name": "",
          "type": "address"
        }
      ],
      "stateMutability": "view",
      "type": "function",
      "constant": true
    },
    {
      "inputs": [
        {
          "internalType": "address",
          "name": "",
          "type": "address"
        },
        {
          "internalType": "address",
          "name": "",
          "type": "address"
        }
      ],
      "name": "permittedDoctors",
      "outputs": [
        {
          "internalType": "bool",
          "name": "",
          "type": "bool"
        }
      ],
      "stateMutability": "view",
      "type": "function",
      "constant": true
    },
    {
      "inputs": [],
      "name": "permittedDoctorsCount",
      "outputs": [
        {
          "internalType": "uint256",
          "name": "",
          "type": "uint256"
        }
      ],
      "stateMutability": "view",
      "type": "function",
      "constant": true
    },
    {
      "inputs": [
        {
          "internalType": "address",
          "name": "",
          "type": "address"
        },
        {
          "internalType": "uint256",
          "name": "",
          "type": "uint256"
        }
      ],
      "name": "permittedDoctorsList",
      "outputs": [
        {
          "internalType": "address",
          "name": "",
          "type": "address"
        }
      ],
      "stateMutability": "view",
      "type": "function",
      "constant": true
    },
    {
      "inputs": [
        {
          "internalType": "address",
          "name": "",
          "type": "address"
        }
      ],
      "name": "reports",
      "outputs": [
        {
          "internalType": "address",
          "name": "doctorId",
          "type": "address"
        },
        {
          "internalType": "string",
          "name": "title",
          "type": "string"
        },
        {
          "internalType": "string",
          "name": "date",
          "type": "string"
        },
        {
          "internalType": "string",
          "name": "content",
          "type": "string"
        }
      ],
      "stateMutability": "view",
      "type": "function",
      "constant": true
    },
    {
      "inputs": [
        {
          "internalType": "address",
          "name": "_patient",
          "type": "address"
        },
        {
          "internalType": "address",
          "name": "_doctor",
          "type": "address"
        }
      ],
      "name": "grantAccess",
      "outputs": [
        {
          "internalType": "bool",
          "name": "",
          "type": "bool"
        }
      ],
      "stateMutability": "nonpayable",
      "type": "function"
    },
    {
      "inputs": [
        {
          "internalType": "address",
          "name": "_patient",
          "type": "address"
        },
        {
          "internalType": "address",
          "name": "_doctor",
          "type": "address"
        },
        {
          "internalType": "uint256",
          "name": "_pdcount",
          "type": "uint256"
        }
      ],
      "name": "revokeAccess",
      "outputs": [],
      "stateMutability": "nonpayable",
      "type": "function"
    },
    {
      "inputs": [],
      "name": "createReport",
      "outputs": [],
      "stateMutability": "nonpayable",
      "type": "function"
    },
    {
      "inputs": [],
      "name": "getReports",
      "outputs": [],
      "stateMutability": "nonpayable",
      "type": "function"
    },
    {
      "inputs": [],
      "name": "encryptReport",
      "outputs": [],
      "stateMutability": "nonpayable",
      "type": "function"
    }
  ],
  "bytecode": "0x60806040526000805533600160006101000a81548173ffffffffffffffffffffffffffffffffffffffff021916908373ffffffffffffffffffffffffffffffffffffffff16021790555034801561005557600080fd5b50610bd3806100656000396000f3fe608060405234801561001057600080fd5b506004361061009e5760003560e01c8063b204f1f511610066578063b204f1f514610112578063c6a09d9514610142578063da6175fd14610172578063edc7d5b1146101a2578063feac5bf6146101c05761009e565b8063252210e3146100a3578063257c02b1146100d65780638da5cb5b146100e05780639e67227d146100fe578063a3c86daf14610108575b600080fd5b6100bd60048036038101906100b891906107da565b6101dc565b6040516100cd94939291906108af565b60405180910390f35b6100de6103c4565b005b6100e86103c6565b6040516100f59190610909565b60405180910390f35b6101066103ec565b005b6101106103ee565b005b61012c6004803603810190610127919061095a565b6103f0565b6040516101399190610909565b60405180910390f35b61015c6004803603810190610157919061099a565b610432565b60405161016991906109f5565b60405180910390f35b61018c6004803603810190610187919061099a565b61063e565b60405161019991906109f5565b60405180910390f35b6101aa61066d565b6040516101b79190610a1f565b60405180910390f35b6101da60048036038101906101d59190610a3a565b610673565b005b60046020528060005260406000206000915090508060000160009054906101000a900473ffffffffffffffffffffffffffffffffffffffff169080600101805461022590610abc565b80601f016020809104026020016040519081016040528092919081815260200182805461025190610abc565b801561029e5780601f106102735761010080835404028352916020019161029e565b820191906000526020600020905b81548152906001019060200180831161028157829003601f168201915b5050505050908060020180546102b390610abc565b80601f01602080910402602001604051908101604052809291908181526020018280546102df90610abc565b801561032c5780601f106103015761010080835404028352916020019161032c565b820191906000526020600020905b81548152906001019060200180831161030f57829003601f168201915b50505050509080600301805461034190610abc565b80601f016020809104026020016040519081016040528092919081815260200182805461036d90610abc565b80156103ba5780601f1061038f576101008083540402835291602001916103ba565b820191906000526020600020905b81548152906001019060200180831161039d57829003601f168201915b5050505050905084565b565b600160009054906101000a900473ffffffffffffffffffffffffffffffffffffffff1681565b565b565b60026020528160005260406000206020528060005260406000206000915091509054906101000a900473ffffffffffffffffffffffffffffffffffffffff1681565b600080600081548092919061044690610b1d565b919050555081600260008573ffffffffffffffffffffffffffffffffffffffff1673ffffffffffffffffffffffffffffffffffffffff16815260200190815260200160002060008054815260200190815260200160002060006101000a81548173ffffffffffffffffffffffffffffffffffffffff021916908373ffffffffffffffffffffffffffffffffffffffff1602179055506001600360008573ffffffffffffffffffffffffffffffffffffffff1673ffffffffffffffffffffffffffffffffffffffff16815260200190815260200160002060008473ffffffffffffffffffffffffffffffffffffffff1673ffffffffffffffffffffffffffffffffffffffff16815260200190815260200160002060006101000a81548160ff0219169083151502179055507f6fcb1ee00c0eae077c3f8db26b8e03cb0a806ac9f92323e2733bfc800c17f2c2838360016040516105a493929190610b66565b60405180910390a1600360008473ffffffffffffffffffffffffffffffffffffffff1673ffffffffffffffffffffffffffffffffffffffff16815260200190815260200160002060008373ffffffffffffffffffffffffffffffffffffffff1673ffffffffffffffffffffffffffffffffffffffff16815260200190815260200160002060009054906101000a900460ff16905092915050565b60036020528160005260406000206020528060005260406000206000915091509054906101000a900460ff1681565b60005481565b600260008473ffffffffffffffffffffffffffffffffffffffff1673ffffffffffffffffffffffffffffffffffffffff168152602001908152602001600020600082815260200190815260200160002060006101000a81549073ffffffffffffffffffffffffffffffffffffffff0219169055600360008473ffffffffffffffffffffffffffffffffffffffff1673ffffffffffffffffffffffffffffffffffffffff16815260200190815260200160002060008373ffffffffffffffffffffffffffffffffffffffff1673ffffffffffffffffffffffffffffffffffffffff16815260200190815260200160002060006101000a81549060ff0219169055505050565b600080fd5b600073ffffffffffffffffffffffffffffffffffffffff82169050919050565b60006107a78261077c565b9050919050565b6107b78161079c565b81146107c257600080fd5b50565b6000813590506107d4816107ae565b92915050565b6000602082840312156107f0576107ef610777565b5b60006107fe848285016107c5565b91505092915050565b6108108161079c565b82525050565b600081519050919050565b600082825260208201905092915050565b60005b83811015610850578082015181840152602081019050610835565b8381111561085f576000848401525b50505050565b6000601f19601f8301169050919050565b600061088182610816565b61088b8185610821565b935061089b818560208601610832565b6108a481610865565b840191505092915050565b60006080820190506108c46000830187610807565b81810360208301526108d68186610876565b905081810360408301526108ea8185610876565b905081810360608301526108fe8184610876565b905095945050505050565b600060208201905061091e6000830184610807565b92915050565b6000819050919050565b61093781610924565b811461094257600080fd5b50565b6000813590506109548161092e565b92915050565b6000806040838503121561097157610970610777565b5b600061097f858286016107c5565b925050602061099085828601610945565b9150509250929050565b600080604083850312156109b1576109b0610777565b5b60006109bf858286016107c5565b92505060206109d0858286016107c5565b9150509250929050565b60008115159050919050565b6109ef816109da565b82525050565b6000602082019050610a0a60008301846109e6565b92915050565b610a1981610924565b82525050565b6000602082019050610a346000830184610a10565b92915050565b600080600060608486031215610a5357610a52610777565b5b6000610a61868287016107c5565b9350506020610a72868287016107c5565b9250506040610a8386828701610945565b9150509250925092565b7f4e487b7100000000000000000000000000000000000000000000000000000000600052602260045260246000fd5b60006002820490506001821680610ad457607f821691505b60208210811415610ae857610ae7610a8d565b5b50919050565b7f4e487b7100000000000000000000000000000000000000000000000000000000600052601160045260246000fd5b6000610b2882610924565b91507fffffffffffffffffffffffffffffffffffffffffffffffffffffffffffffffff821415610b5b57610b5a610aee565b5b600182019050919050565b6000606082019050610b7b6000830186610807565b610b886020830185610807565b610b9560408301846109e6565b94935050505056fea264697066735822122082a48233e9eeefc54a73041088c8a7b1e9e65a78ee0d0f7a73b78be9d927738664736f6c634300080a0033",
  "immutableReferences": {},
  "source": "// SPDX-License-Identifier: MIT\npragma solidity >=0.4.22 <0.9.0;\n\n// robin = await Robin.deployed()\n\ncontract Robin {\n    uint public permittedDoctorsCount = 0;\n    address public owner = msg.sender;\n\n    // mapping (address => bool) public permittedDoctors;\n    // mapping(address => mapping(address => bool)) public permittedDoctors;\n\n    // mapping(address => mapping(uint => mapping(address => bool))) public permittedDoctors;\n\n    mapping(address => mapping(uint => address)) public permittedDoctorsList;\n    mapping(address => mapping(address => bool)) public permittedDoctors;\n\n    mapping(address => Report) public reports;\n\n    /*\n     * enum\n     */\n\n    // enum UserType { Doctor, Patient }\n\n    /*\n     * struct\n     */\n\n    struct Doctor {\n        address id;\n    }\n\n    struct Patient {\n        address id;\n    }\n\n    struct Report {\n        // address patientId;\n        address doctorId;\n        string title;\n        string date;\n        string content;\n    }\n\n    /*\n     * Events\n     */\n\n    event LogPermittedDoctors(address patient, address doctor, bool permitted);\n\n    /*\n     * Modifiers\n     */\n\n    //  modifier isNotPatient(uint _sku) {\n    //   require(msg.sender == items[_sku].seller);\n    //   _;\n    // }\n\n    constructor() public {}\n\n    // a patient should not be able to grant his/her self permission\n    function grantAccess(address _patient, address _doctor) public returns (bool) {\n        permittedDoctorsCount ++;\n        \n        permittedDoctorsList[_patient][permittedDoctorsCount] = _doctor;\n        permittedDoctors[_patient][_doctor] = true;\n\n        emit LogPermittedDoctors(_patient, _doctor, true);\n\n        return permittedDoctors[_patient][_doctor];\n    }\n\n    // function getListOfPermittedDoctors(address _patient) public {\n    //     // check if this is the patient\n        \n    //     // delete permittedDoctors[_patient][_doctor];\n\n    // }\n\n    // patienrs should be able to revoke doctors permission as anytime\n    function revokeAccess(address _patient, address _doctor, uint _pdcount) public {\n        delete permittedDoctorsList[_patient][_pdcount];\n        delete permittedDoctors[_patient][_doctor];\n    }\n\n    // only permitted doctors should be able to create a report\n    function createReport() public {}\n\n    // only permitted doctors and owner should be able to list reports\n    function getReports() public {}\n\n    // report detials should be encrypted before adding them to the blockchain.\n    function encryptReport() public {}\n}\n",
  "sourcePath": "/Users/i.emehinola/localhost/hydeenoble/blockchain-developer-bootcamp-final-project/contracts/Robin.sol",
  "compiler": {
    "name": "solc",
    "version": "0.8.10+commit.fc410830.Emscripten.clang"
  },
  "schemaVersion": "3.4.3",
  "updatedAt": "2021-11-13T22:00:26.802Z",
  "networkType": "ethereum",
  "devdoc": {
    "kind": "dev",
    "methods": {},
    "version": 1
  },
  "userdoc": {
    "kind": "user",
    "methods": {},
    "version": 1
  }
}