{
  "contractName": "Robin",
  "abi": [
    {
      "inputs": [],
      "stateMutability": "nonpayable",
      "type": "constructor"
    },
    {
      "anonymous": false,
      "inputs": [
        {
          "indexed": false,
          "internalType": "address",
          "name": "patient",
          "type": "address"
        },
        {
          "indexed": false,
          "internalType": "address",
          "name": "doctor",
          "type": "address"
        },
        {
          "indexed": false,
          "internalType": "bool",
          "name": "permitted",
          "type": "bool"
        }
      ],
      "name": "LogPermittedDoctors",
      "type": "event"
    },
    {
      "inputs": [],
      "name": "owner",
      "outputs": [
        {
          "internalType": "address",
          "name": "",
          "type": "address"
        }
      ],
      "stateMutability": "view",
      "type": "function",
      "constant": true
    },
    {
      "inputs": [
        {
          "internalType": "address",
          "name": "",
          "type": "address"
        },
        {
          "internalType": "address",
          "name": "",
          "type": "address"
        }
      ],
      "name": "permittedDoctors",
      "outputs": [
        {
          "internalType": "bool",
          "name": "",
          "type": "bool"
        }
      ],
      "stateMutability": "view",
      "type": "function",
      "constant": true
    },
    {
      "inputs": [],
      "name": "permittedDoctorsCount",
      "outputs": [
        {
          "internalType": "uint256",
          "name": "",
          "type": "uint256"
        }
      ],
      "stateMutability": "view",
      "type": "function",
      "constant": true
    },
    {
      "inputs": [
        {
          "internalType": "address",
          "name": "",
          "type": "address"
        },
        {
          "internalType": "uint256",
          "name": "",
          "type": "uint256"
        }
      ],
      "name": "permittedDoctorsList",
      "outputs": [
        {
          "internalType": "address",
          "name": "",
          "type": "address"
        }
      ],
      "stateMutability": "view",
      "type": "function",
      "constant": true
    },
    {
      "inputs": [],
      "name": "reportCount",
      "outputs": [
        {
          "internalType": "uint256",
          "name": "",
          "type": "uint256"
        }
      ],
      "stateMutability": "view",
      "type": "function",
      "constant": true
    },
    {
      "inputs": [
        {
          "internalType": "address",
          "name": "",
          "type": "address"
        },
        {
          "internalType": "uint256",
          "name": "",
          "type": "uint256"
        }
      ],
      "name": "reports",
      "outputs": [
        {
          "internalType": "address",
          "name": "doctorId",
          "type": "address"
        },
        {
          "internalType": "string",
          "name": "subject",
          "type": "string"
        },
        {
          "internalType": "string",
          "name": "date",
          "type": "string"
        },
        {
          "internalType": "string",
          "name": "report",
          "type": "string"
        }
      ],
      "stateMutability": "view",
      "type": "function",
      "constant": true
    },
    {
      "inputs": [
        {
          "internalType": "address",
          "name": "_patient",
          "type": "address"
        },
        {
          "internalType": "address",
          "name": "_doctor",
          "type": "address"
        }
      ],
      "name": "grantAccess",
      "outputs": [
        {
          "internalType": "bool",
          "name": "",
          "type": "bool"
        }
      ],
      "stateMutability": "nonpayable",
      "type": "function"
    },
    {
      "inputs": [
        {
          "internalType": "address",
          "name": "_patient",
          "type": "address"
        },
        {
          "internalType": "address",
          "name": "_doctor",
          "type": "address"
        },
        {
          "internalType": "uint256",
          "name": "_pdcount",
          "type": "uint256"
        }
      ],
      "name": "revokeAccess",
      "outputs": [],
      "stateMutability": "nonpayable",
      "type": "function"
    },
    {
      "inputs": [
        {
          "internalType": "address",
          "name": "_doctor",
          "type": "address"
        },
        {
          "internalType": "address",
          "name": "_patient",
          "type": "address"
        },
        {
          "internalType": "string",
          "name": "_subject",
          "type": "string"
        },
        {
          "internalType": "string",
          "name": "_date",
          "type": "string"
        },
        {
          "internalType": "string",
          "name": "_report",
          "type": "string"
        }
      ],
      "name": "createReport",
      "outputs": [
        {
          "internalType": "bool",
          "name": "",
          "type": "bool"
        }
      ],
      "stateMutability": "nonpayable",
      "type": "function"
    },
    {
      "inputs": [],
      "name": "getReports",
      "outputs": [],
      "stateMutability": "nonpayable",
      "type": "function"
    },
    {
      "inputs": [],
      "name": "encryptReport",
      "outputs": [],
      "stateMutability": "nonpayable",
      "type": "function"
    }
  ],
  "bytecode": "0x608060405260008055600060015533600260006101000a81548173ffffffffffffffffffffffffffffffffffffffff021916908373ffffffffffffffffffffffffffffffffffffffff16021790555034801561005a57600080fd5b5061100d8061006a6000396000f3fe608060405234801561001057600080fd5b50600436106100a95760003560e01c8063bad02c7e11610071578063bad02c7e1461012e578063be299d6a14610161578063c6a09d9514610191578063da6175fd146101c1578063edc7d5b1146101f1578063feac5bf61461020f576100a9565b8063185c6f84146100ae578063257c02b1146100cc5780638da5cb5b146100d6578063a3c86daf146100f4578063b204f1f5146100fe575b600080fd5b6100b661022b565b6040516100c391906109e4565b60405180910390f35b6100d4610231565b005b6100de610233565b6040516100eb9190610a40565b60405180910390f35b6100fc610259565b005b61011860048036038101906101139190610ac7565b61025b565b6040516101259190610a40565b60405180910390f35b61014860048036038101906101439190610ac7565b61029d565b6040516101589493929190610ba0565b60405180910390f35b61017b60048036038101906101769190610d2f565b610492565b6040516101889190610e19565b60405180910390f35b6101ab60048036038101906101a69190610e34565b6105e3565b6040516101b89190610e19565b60405180910390f35b6101db60048036038101906101d69190610e34565b6107ef565b6040516101e89190610e19565b60405180910390f35b6101f961081e565b60405161020691906109e4565b60405180910390f35b61022960048036038101906102249190610e74565b610824565b005b60015481565b565b600260009054906101000a900473ffffffffffffffffffffffffffffffffffffffff1681565b565b60036020528160005260406000206020528060005260406000206000915091509054906101000a900473ffffffffffffffffffffffffffffffffffffffff1681565b6005602052816000526040600020602052806000526040600020600091509150508060000160009054906101000a900473ffffffffffffffffffffffffffffffffffffffff16908060010180546102f390610ef6565b80601f016020809104026020016040519081016040528092919081815260200182805461031f90610ef6565b801561036c5780601f106103415761010080835404028352916020019161036c565b820191906000526020600020905b81548152906001019060200180831161034f57829003601f168201915b50505050509080600201805461038190610ef6565b80601f01602080910402602001604051908101604052809291908181526020018280546103ad90610ef6565b80156103fa5780601f106103cf576101008083540402835291602001916103fa565b820191906000526020600020905b8154815290600101906020018083116103dd57829003601f168201915b50505050509080600301805461040f90610ef6565b80601f016020809104026020016040519081016040528092919081815260200182805461043b90610ef6565b80156104885780601f1061045d57610100808354040283529160200191610488565b820191906000526020600020905b81548152906001019060200180831161046b57829003601f168201915b5050505050905084565b6000600160008154809291906104a790610f57565b919050555060405180608001604052808773ffffffffffffffffffffffffffffffffffffffff16815260200185815260200184815260200183815250600560008773ffffffffffffffffffffffffffffffffffffffff1673ffffffffffffffffffffffffffffffffffffffff1681526020019081526020016000206000600154815260200190815260200160002060008201518160000160006101000a81548173ffffffffffffffffffffffffffffffffffffffff021916908373ffffffffffffffffffffffffffffffffffffffff1602179055506020820151816001019080519060200190610598929190610928565b5060408201518160020190805190602001906105b5929190610928565b5060608201518160030190805190602001906105d2929190610928565b509050506001905095945050505050565b60008060008154809291906105f790610f57565b919050555081600360008573ffffffffffffffffffffffffffffffffffffffff1673ffffffffffffffffffffffffffffffffffffffff16815260200190815260200160002060008054815260200190815260200160002060006101000a81548173ffffffffffffffffffffffffffffffffffffffff021916908373ffffffffffffffffffffffffffffffffffffffff1602179055506001600460008573ffffffffffffffffffffffffffffffffffffffff1673ffffffffffffffffffffffffffffffffffffffff16815260200190815260200160002060008473ffffffffffffffffffffffffffffffffffffffff1673ffffffffffffffffffffffffffffffffffffffff16815260200190815260200160002060006101000a81548160ff0219169083151502179055507f6fcb1ee00c0eae077c3f8db26b8e03cb0a806ac9f92323e2733bfc800c17f2c28383600160405161075593929190610fa0565b60405180910390a1600460008473ffffffffffffffffffffffffffffffffffffffff1673ffffffffffffffffffffffffffffffffffffffff16815260200190815260200160002060008373ffffffffffffffffffffffffffffffffffffffff1673ffffffffffffffffffffffffffffffffffffffff16815260200190815260200160002060009054906101000a900460ff16905092915050565b60046020528160005260406000206020528060005260406000206000915091509054906101000a900460ff1681565b60005481565b600360008473ffffffffffffffffffffffffffffffffffffffff1673ffffffffffffffffffffffffffffffffffffffff168152602001908152602001600020600082815260200190815260200160002060006101000a81549073ffffffffffffffffffffffffffffffffffffffff0219169055600460008473ffffffffffffffffffffffffffffffffffffffff1673ffffffffffffffffffffffffffffffffffffffff16815260200190815260200160002060008373ffffffffffffffffffffffffffffffffffffffff1673ffffffffffffffffffffffffffffffffffffffff16815260200190815260200160002060006101000a81549060ff0219169055505050565b82805461093490610ef6565b90600052602060002090601f016020900481019282610956576000855561099d565b82601f1061096f57805160ff191683800117855561099d565b8280016001018555821561099d579182015b8281111561099c578251825591602001919060010190610981565b5b5090506109aa91906109ae565b5090565b5b808211156109c75760008160009055506001016109af565b5090565b6000819050919050565b6109de816109cb565b82525050565b60006020820190506109f960008301846109d5565b92915050565b600073ffffffffffffffffffffffffffffffffffffffff82169050919050565b6000610a2a826109ff565b9050919050565b610a3a81610a1f565b82525050565b6000602082019050610a556000830184610a31565b92915050565b6000604051905090565b600080fd5b600080fd5b610a7881610a1f565b8114610a8357600080fd5b50565b600081359050610a9581610a6f565b92915050565b610aa4816109cb565b8114610aaf57600080fd5b50565b600081359050610ac181610a9b565b92915050565b60008060408385031215610ade57610add610a65565b5b6000610aec85828601610a86565b9250506020610afd85828601610ab2565b9150509250929050565b600081519050919050565b600082825260208201905092915050565b60005b83811015610b41578082015181840152602081019050610b26565b83811115610b50576000848401525b50505050565b6000601f19601f8301169050919050565b6000610b7282610b07565b610b7c8185610b12565b9350610b8c818560208601610b23565b610b9581610b56565b840191505092915050565b6000608082019050610bb56000830187610a31565b8181036020830152610bc78186610b67565b90508181036040830152610bdb8185610b67565b90508181036060830152610bef8184610b67565b905095945050505050565b600080fd5b600080fd5b7f4e487b7100000000000000000000000000000000000000000000000000000000600052604160045260246000fd5b610c3c82610b56565b810181811067ffffffffffffffff82111715610c5b57610c5a610c04565b5b80604052505050565b6000610c6e610a5b565b9050610c7a8282610c33565b919050565b600067ffffffffffffffff821115610c9a57610c99610c04565b5b610ca382610b56565b9050602081019050919050565b82818337600083830152505050565b6000610cd2610ccd84610c7f565b610c64565b905082815260208101848484011115610cee57610ced610bff565b5b610cf9848285610cb0565b509392505050565b600082601f830112610d1657610d15610bfa565b5b8135610d26848260208601610cbf565b91505092915050565b600080600080600060a08688031215610d4b57610d4a610a65565b5b6000610d5988828901610a86565b9550506020610d6a88828901610a86565b945050604086013567ffffffffffffffff811115610d8b57610d8a610a6a565b5b610d9788828901610d01565b935050606086013567ffffffffffffffff811115610db857610db7610a6a565b5b610dc488828901610d01565b925050608086013567ffffffffffffffff811115610de557610de4610a6a565b5b610df188828901610d01565b9150509295509295909350565b60008115159050919050565b610e1381610dfe565b82525050565b6000602082019050610e2e6000830184610e0a565b92915050565b60008060408385031215610e4b57610e4a610a65565b5b6000610e5985828601610a86565b9250506020610e6a85828601610a86565b9150509250929050565b600080600060608486031215610e8d57610e8c610a65565b5b6000610e9b86828701610a86565b9350506020610eac86828701610a86565b9250506040610ebd86828701610ab2565b9150509250925092565b7f4e487b7100000000000000000000000000000000000000000000000000000000600052602260045260246000fd5b60006002820490506001821680610f0e57607f821691505b60208210811415610f2257610f21610ec7565b5b50919050565b7f4e487b7100000000000000000000000000000000000000000000000000000000600052601160045260246000fd5b6000610f62826109cb565b91507fffffffffffffffffffffffffffffffffffffffffffffffffffffffffffffffff821415610f9557610f94610f28565b5b600182019050919050565b6000606082019050610fb56000830186610a31565b610fc26020830185610a31565b610fcf6040830184610e0a565b94935050505056fea2646970667358221220d10c5bac47e91afed8fbc36b03962a1ea9bbca3e5dbbc415278a15eaa5dc1c3264736f6c634300080a0033",
  "immutableReferences": {},
  "source": "// SPDX-License-Identifier: MIT\npragma solidity >=0.4.22 <0.9.0;\n\n// robin = await Robin.deployed()\n\ncontract Robin {\n    uint public permittedDoctorsCount = 0;\n    uint public reportCount = 0;\n    address public owner = msg.sender;\n\n    // mapping (address => bool) public permittedDoctors;\n    // mapping(address => mapping(address => bool)) public permittedDoctors;\n\n    // mapping(address => mapping(uint => mapping(address => bool))) public permittedDoctors;\n\n    mapping(address => mapping(uint => address)) public permittedDoctorsList;\n    mapping(address => mapping(address => bool)) public permittedDoctors;\n\n    mapping(address => mapping(uint => Report)) public reports;\n\n    /*\n     * enum\n     */\n\n    // enum UserType { Doctor, Patient }\n\n    /*\n     * struct\n     */\n\n    struct Doctor {\n        address id;\n    }\n\n    struct Patient {\n        address id;\n    }\n\n    struct Report {\n        // address patientId;\n        address doctorId;\n        string subject;\n        string date;\n        string report;\n    }\n\n    /*\n     * Events\n     */\n\n    event LogPermittedDoctors(address patient, address doctor, bool permitted);\n\n    /*\n     * Modifiers\n     */\n\n    //  modifier isNotPatient(uint _sku) {\n    //   require(msg.sender == items[_sku].seller);\n    //   _;\n    // }\n\n    constructor() public {}\n\n    // a patient should not be able to grant his/her self permission\n    function grantAccess(address _patient, address _doctor) public returns (bool) {\n        permittedDoctorsCount ++;\n        \n        permittedDoctorsList[_patient][permittedDoctorsCount] = _doctor;\n        permittedDoctors[_patient][_doctor] = true;\n\n        emit LogPermittedDoctors(_patient, _doctor, true);\n\n        return permittedDoctors[_patient][_doctor];\n    }\n\n    // patienrs should be able to revoke doctors permission as anytime\n    function revokeAccess(address _patient, address _doctor, uint _pdcount) public {\n        delete permittedDoctorsList[_patient][_pdcount];\n        delete permittedDoctors[_patient][_doctor];\n    }\n\n    // only permitted doctors should be able to create a report\n    function createReport(address _doctor, address _patient, string memory _subject, string memory _date,  string memory _report) public  returns (bool) {\n        reportCount++;\n\n        reports[_patient][reportCount] = Report({\n            doctorId: _doctor,\n            subject: _subject,\n            date: _date,\n            report: _report\n        });\n\n        return true;\n    }\n\n    // only permitted doctors and owner should be able to list reports\n    function getReports() public {}\n\n    // report detials should be encrypted before adding them to the blockchain.\n    function encryptReport() public {}\n}\n",
  "sourcePath": "/Users/i.emehinola/localhost/hydeenoble/blockchain-developer-bootcamp-final-project/contracts/Robin.sol",
  "compiler": {
    "name": "solc",
    "version": "0.8.10+commit.fc410830.Emscripten.clang"
  },
  "schemaVersion": "3.4.3",
  "updatedAt": "2021-11-14T09:10:46.422Z",
  "networkType": "ethereum",
  "devdoc": {
    "kind": "dev",
    "methods": {},
    "version": 1
  },
  "userdoc": {
    "kind": "user",
    "methods": {},
    "version": 1
  }
}